:100000000C9462000C948A000C948A000C948A0070
:100010000C948A000C948A000C948A000C948A0038
:100020000C948A000C948A000C948A000C948A0028
:100030000C948A000C948A000C948A000C948A0018
:100040000C9417010C948A000C9453040C948504AE
:100050000C948A000C948A000C948A000C948A00F8
:100060000C948A000C948A00000000080002010031
:100070000003040700000000000000000102040863
:100080001020408001020408102001020408102002
:10009000040404040404040402020202020203032E
:1000A00003030303000000002300260029000000D2
:1000B0000000250028002B0000000000240027007D
:1000C0002A00B50411241FBECFEFD8E0DEBFCDBF9C
:1000D00011E0A0E0B1E0E6E4FFE002C005900D927F
:1000E000AC31B107D9F721E0ACE1B1E001C01D921C
:1000F000AE3CB207E1F710E0C4ECD0E004C02297B8
:10010000FE010E948E07C23CD107C9F70E94F90484
:100110000C94A1070C94000026E040E855E260E052
:1001200070E081E391E00E94F10361E083E00E94CE
:100130001A0260E082E00C941A02CF93DF93C82F7A
:10014000D62F60E00E94530282E090E00E94AC0152
:1001500061E08C2F0E9453028AE090E00E94AC0183
:1001600060E08C2F0E94530220E432E44FE050E024
:1001700061E08D2F0E948902609324017093250114
:10018000809326019093270122E030E040E050E088
:100190000E946207CA01B9010E94B4062DEC3CEC32
:1001A00048EE51E40E9419060E94810660932001E6
:1001B000709321018093220190932301DF91CF91CD
:1001C000089562E070E083E090E00E949D008091DD
:1001D000200190912101A0912201B09123018093EF
:1001E0001C0190931D01A0931E01B0931F0160E0BC
:1001F00071E081E391E00E94460540911C0150911D
:100200001D0160911E0170911F012AE030E081E321
:1002100091E00E94CE0567E071E081E391E00E94E9
:10022000630568EE73E080E090E00C9484011F9217
:100230000F920FB60F9211242F933F938F939F939A
:10024000AF93BF938091290190912A01A0912B0136
:10025000B0912C013091280123E0230F2D3720F499
:100260000196A11DB11D05C026E8230F0296A11D10
:10027000B11D209328018093290190932A01A09316
:100280002B01B0932C0180912D0190912E01A09112
:100290002F01B09130010196A11DB11D80932D0158
:1002A00090932E01A0932F01B0933001BF91AF9195
:1002B0009F918F913F912F910F900FBE0F901F90A4
:1002C00018953FB7F89480912D0190912E01A0913F
:1002D0002F01B091300126B5A89B05C02F3F19F022
:1002E0000196A11DB11D3FBF6627782F892F9A2F38
:1002F000620F711D811D911D42E0660F771F881FDF
:10030000991F4A95D1F70895CF92DF92EF92FF920D
:10031000CF93DF936B017C010E946101EB01C1145B
:10032000D104E104F10489F00E9418060E946101E1
:100330006C1B7D0B683E734090F381E0C81AD108B6
:10034000E108F108C851DC4FEACFDF91CF91FF906F
:10035000EF90DF90CF900895019739F0880F991FA3
:10036000880F991F02970197F1F70895789484B543
:10037000826084BD84B5816084BD85B5826085BDA1
:1003800085B5816085BDEEE6F0E080818160808387
:10039000E1E8F0E01082808182608083808181606A
:1003A0008083E0E8F0E0808181608083E1EBF0E031
:1003B000808184608083E0EBF0E0808181608083D5
:1003C000EAE7F0E0808184608083808182608083BE
:1003D0008081816080838081806880831092C100E9
:1003E0000895833081F028F4813099F08230A1F0B3
:1003F00008958730A9F08830B9F08430D1F4809125
:1004000080008F7D03C0809180008F778093800073
:10041000089584B58F7702C084B58F7D84BD08951B
:100420008091B0008F7703C08091B0008F7D809362
:10043000B0000895CF93DF9390E0FC01E458FF4FA4
:100440002491FC01E057FF4F8491882349F190E00B
:10045000880F991FFC01E854FF4FA591B491825574
:100460009F4FFC01C591D4919FB7611108C0F894CA
:100470008C91209582238C93888182230AC06230DC
:1004800051F4F8948C91322F309583238C9388818A
:10049000822B888304C0F8948C91822B8C939FBF0D
:1004A000DF91CF9108950F931F93CF93DF931F9206
:1004B000CDB7DEB7282F30E0F901E859FF4F84911E
:1004C000F901E458FF4F1491F901E057FF4F0491EF
:1004D0000023C9F0882321F069830E94F10169811A
:1004E000E02FF0E0EE0FFF1FE255FF4FA591B49112
:1004F0009FB7F8948C91611103C01095812301C0BE
:10050000812B8C939FBF0F90DF91CF911F910F9103
:100510000895CF92DF92EF92FF920F931F93CF93A4
:10052000DF9390E0FC01E458FF4FD491FC01E057C9
:10053000FF4F7491611102C0C0E001C0CD2FDA01FC
:10054000C901BF70672F70E0660F771F6C557F4F32
:1005500000E010E09801FB01E590F490F701408184
:100560004D234C131EC0680179014FEFC41AD40A01
:10057000E40AF40A081719072A073B0709F442C0DE
:1005800097018601E8CF68017901FFEFCF1ADF0AF2
:10059000EF0AFF0A081719072A073B0799F1970185
:1005A0008601FB01E590F490F70140814D234C1347
:1005B000EACF801B910BA20BB30B20E030E0A90126
:1005C000FB01E590F490F701F080FD22FC120AC0D7
:1005D000281739074A075B07A9F02F5F3F4F4F4F96
:1005E0005F4FEECFA8E1B0E00E948107605F7F4FD0
:1005F0008F4F9F4F24E096958795779567952A951D
:10060000D1F703C060E070E0CB01DF91CF911F9183
:100610000F91FF90EF90DF90CF900895FC01818DB6
:10062000228D90E0805C9F4F821B91098F739927E8
:100630000895FC01918D828D981731F0828DE80F1D
:10064000F11D858D90E008958FEF9FEF0895FC01D7
:10065000918D828D981761F0828DDF01A80FB11DF9
:100660005D968C91928D9F5F9F73928F90E008951D
:100670008FEF9FEF08958BEA94E0892B49F080E09B
:1006800090E0892B29F00E94AB0481110C940000AA
:100690000895FC01848DDF01A80FB11DA35ABF4F3F
:1006A0002C91848D90E001968F739927848FA68971
:1006B000B7892C93A089B1898C9180648C93938D98
:1006C000848D981306C00288F389E02D80818F7D88
:1006D00080830895CF93DF93EC01888D8823C9F040
:1006E000EA89FB89808185FD05C0A889B9898C913B
:1006F00086FD0FC00FB607FCF5CF808185FFF2CFD6
:10070000A889B9898C9185FFEDCFCE010E9449035C
:10071000E7CFDF91CF910895CF92DF92FF920F93B1
:100720001F93CF93DF931F92CDB7DEB76C01DC012F
:100730005B969C915B975C968C915C97981307C035
:100740005096ED91FC915197808185FD32C0F60164
:10075000038D10E00F5F1F4F0F731127F02EF6016E
:10076000848DF81211C00FB607FCF9CFD601509650
:10077000ED91FC915197808185FFF1CFC60169838E
:100780000E9449036981EBCF838DE80FF11DE35A85
:10079000FF4F6083D6015B960C935B975296ED9169
:1007A000FC91539780818062808381E058968C937E
:1007B0000DC0D6015696ED91FC91579760835096E7
:1007C000ED91FC91519780818064808381E090E07D
:1007D0000F90DF91CF911F910F91FF90DF90CF90FD
:1007E0000895BF92CF92DF92EF92FF92CF93DF9363
:1007F000EC016A017B01B22EE889F98982E08083ED
:10080000411581EE580761057105A1F060E079E0BE
:100810008DE390E0A70196010E9440072150310925
:10082000410951095695479537952795211580E13E
:10083000380798F0E889F989108260E874E88EE159
:1008400090E0A70196010E9440072150310941091B
:1008500051095695479537952795EC85FD85308349
:10086000EE85FF852083188EEC89FD89B082EA89A8
:10087000FB89808180618083EA89FB89808188602F
:100880008083EA89FB89808180688083EA89FB898B
:1008900080818F7D8083DF91CF91FF90EF90DF90FB
:1008A000CF90BF9008951F920F920FB60F92112410
:1008B0002F938F939F93EF93FF93E0914101F091DA
:1008C00042018081E0914701F091480182FD12C010
:1008D000908180914A018F5F8F7320914B01821725
:1008E00051F0E0914A01F0E0EF5CFE4F958F80936C
:1008F0004A0101C08081FF91EF919F918F912F91CB
:100900000F900FBE0F901F9018951F920F920FB669
:100910000F9211242F933F934F935F936F937F9385
:100920008F939F93AF93BF93EF93FF9381E391E0F6
:100930000E944903FF91EF91BF91AF919F918F91D9
:100940007F916F915F914F913F912F910F900FBECB
:100950000F901F90189581E391E00E940E0321E013
:10096000892B09F420E0822F08951092340110920F
:10097000330188EE93E0A0E0B0E0809335019093DE
:100980003601A0933701B09338018FE091E0909346
:1009900032018093310185EC90E090933E01809389
:1009A0003D0184EC90E09093400180933F0180EC06
:1009B00090E0909342018093410181EC90E090930C
:1009C00044018093430182EC90E090934601809330
:1009D000450186EC90E09093480180934701109286
:1009E0004A0110924B0110924C0110924D01089552
:1009F00008950E94B6010E94F8040E948C00CBE387
:100A0000D3E00E94E1002097E1F30E943B03F9CF7D
:100A1000CF92DF92EF92FF920F931F93CF93DF93CA
:100A20006C017A01EB01E60EF71E00E010E0CE1536
:100A3000DF0561F06991D601ED91FC910190F081A3
:100A4000E02DC6010995080F191FF1CFC801DF91EC
:100A5000CF911F910F91FF90EF90DF90CF9008956D
:100A60006115710581F0DB010D900020E9F7AD0102
:100A700041505109461B570BDC01ED91FC9102805E
:100A8000F381E02D099480E090E008950C94300506
:100A9000DC01ED91FC910190F081E02D09940F9320
:100AA0001F93CF93DF93EC016DE00E9448058C010A
:100AB0006AE0CE010E944805800F911FDF91CF911F
:100AC0001F910F9108950F931F93CF93DF93EC0124
:100AD0000E9430058C01CE010E944F05800F911FAE
:100AE000DF91CF911F910F9108958F929F92AF92B6
:100AF000BF92CF92DF92EF92FF920F931F93CF930B
:100B0000DF93CDB7DEB7A1970FB6F894DEBF0FBE67
:100B1000CDBF7C01C42EE52FCB01D22E19A221E03E
:100B20002D1510F02AE0D22E8E010F5D1F4F8D2C57
:100B3000912CA12CB12C6C2D7E2FA50194010E942B
:100B400040078C2DD29E80191124015011098A3042
:100B500014F4805D01C0895CF801808321153105A2
:100B60004105510521F0C22EE32FCA01E4CFB8019F
:100B7000C7010E943005A1960FB6F894DEBF0FBEE4
:100B8000CDBFDF91CF911F910F91FF90EF90DF903C
:100B9000CF90BF90AF909F908F900895CF92DF92AB
:100BA000EF92FF920F931F93CF93DF93EC016A01B3
:100BB0007B012115310579F4E881F9810190F081FB
:100BC000E02D642FDF91CF911F910F91FF90EF9057
:100BD000DF90CF9009942A303105E9F477FF1AC0ED
:100BE0006DE20E9448058C0144275527BA014C1933
:100BF0005D096E097F092AE0CE010E947505800F0C
:100C0000911FDF91CF911F910F91FF90EF90DF9097
:100C1000CF9008952AE0B701A601CE01DF91CF91D0
:100C20001F910F91FF90EF90DF90CF900C9475057E
:100C300008950CD0EBC0E3D040F0DAD030F021F4CE
:100C40005F3F19F0CCC0511115C1CFC0F0D098F35F
:100C50009923C9F35523B1F3951B550BBB27AA273D
:100C600062177307840738F09F5F5F4F220F331FAF
:100C7000441FAA1FA9F333D00E2E3AF0E0E830D07B
:100C800091505040E695001CCAF729D0FE2F27D07E
:100C9000660F771F881FBB1F261737074807AB074C
:100CA000B0E809F0BB0B802DBF01FF2793585F4FC1
:100CB0002AF09E3F510568F092C0DCC05F3FECF324
:100CC000983EDCF3869577956795B795F7959F5F86
:100CD000C9F7880F911D9695879597F90895E1E0DA
:100CE000660F771F881FBB1F621773078407BA0739
:100CF00020F0621B730B840BBA0BEE1F88F7E09594
:100D0000089504D06894B111B5C0089598D088F0C2
:100D10009F5790F0B92F9927B751A0F0D1F0660FE7
:100D2000771F881F991F1AF0BA95C9F712C0B13002
:100D300081F09FD0B1E008959CC0672F782F88275D
:100D4000B85F39F0B93FCCF3869577956795B39541
:100D5000D9F73EF490958095709561957F4F8F4FB0
:100D60009F4F0895E89409C097FB3EF490958095B5
:100D7000709561957F4F8F4F9F4F9923A9F0F92F61
:100D800096E9BB279395F695879577956795B795DF
:100D9000F111F8CFFAF4BB0F11F460FF1BC06F5FC5
:100DA0007F4F8F4F9F4F16C0882311F096E911C0D7
:100DB000772321F09EE8872F762F05C0662371F0F8
:100DC00096E8862F70E060E02AF09A95660F771F0C
:100DD000881FDAF7880F9695879597F9089597F900
:100DE0009F6780E870E060E008959FEF80EC0895D1
:100DF00000240A94161617061806090608950024FA
:100E00000A9412161306140605060895092E039473
:100E1000000C11F4882352F0BB0F40F4BF2B11F4E7
:100E200060FF04C06F5F7F4F8F4F9F4F089557FD46
:100E30009058440F551F59F05F3F71F04795880F48
:100E400097FB991F61F09F3F79F0879508951216DF
:100E500013061406551FF2CF4695F1DF08C016168B
:100E600017061806991FF1CF86957105610508943C
:100E70000895E894BB2766277727CB0197F9089553
:100E8000A1E21A2EAA1BBB1BFD010DC0AA1FBB1F8E
:100E9000EE1FFF1FA217B307E407F50720F0A21B00
:100EA000B30BE40BF50B661F771F881F991F1A946D
:100EB00069F760957095809590959B01AC01BD0197
:100EC000CF010895052E97FB1EF400940E94790728
:100ED00057FD07D00E94400707FC03D04EF40C9446
:100EE000790750954095309521953F4F4F4F5F4F73
:100EF000089590958095709561957F4F8F4F9F4F86
:100F000008950E949207A59F900DB49F900DA49FF5
:100F1000800D911D11240895EE0FFF1F0590F4918F
:100F2000E02D0994A29FB001B39FC001A39F700D53
:100F3000811D1124911DB29F700D811D1124911DE1
:060F40000895F894FFCFB4
:100F46004A6172616B200020636D00000000008C16
:0C0F56000308050E03270319036A0300BB
:00000001FF