:100000000C9435000C945D000C945D000C945D0024
:100010000C945D000C945D000C945D000C945D00EC
:100020000C945D000C945D000C945D000C945D00DC
:100030000C945D000C945D000C945D000C945D00CC
:100040000C94AE000C945D000C94E0020C9412032E
:100050000C945D000C945D000C945D000C945D00AC
:100060000C945D000C945D00420311241FBECFEF81
:10007000D8E0DEBFCDBF11E0A0E0B1E0E4EEFFE0EC
:1000800002C005900D92AC33B107D9F721E0ACE383
:10009000B1E001C01D92A83EB207E1F710E0CAE648
:1000A000D0E004C02297FE010E94EC07C836D107B9
:1000B000C9F70E9486030C94F0070C94000026E018
:1000C00040E855E260E070E08BE491E00C947E0241
:1000D0008EE00E947E019093410180934001BC011B
:1000E000882777FD8095982F0E94AD062AE038E298
:1000F00040EA5BE30E94610760933C0170933D011D
:1001000080933E0190933F0161E071E08BE491E0C8
:100110000E94D30360914001709141014AE050E098
:100120008BE491E00E9493046DE071E08BE491E038
:100130000E94D30340913C0150913D0160913E01EA
:1001400070913F0122E030E08BE491E00E9496053F
:1001500068EE73E080E090E00C941B011F920F9218
:100160000FB60F9211242F933F938F939F93AF93CA
:10017000BF938091430190914401A0914501B091BA
:1001800046013091420123E0230F2D3720F40196E0
:10019000A11DB11D05C026E8230F0296A11DB11DAA
:1001A000209342018093430190934401A093450121
:1001B000B09346018091470190914801A091490177
:1001C000B0914A010196A11DB11D80934701909302
:1001D0004801A0934901B0934A01BF91AF919F910B
:1001E0008F913F912F910F900FBE0F901F901895F8
:1001F0003FB7F8948091470190914801A09149013F
:10020000B0914A0126B5A89B05C02F3F19F0019671
:10021000A11DB11D3FBF6627782F892F9A2F620F2E
:10022000711D811D911D42E0660F771F881F991F68
:100230004A95D1F70895CF92DF92EF92FF92CF9334
:10024000DF936B017C010E94F800EB01C114D10423
:10025000E104F10489F00E94A8050E94F8006C1BDB
:100260007D0B683E734090F381E0C81AD108E10825
:10027000F108C851DC4FEACFDF91CF91FF90EF90AA
:10028000DF90CF900895789484B5826084BD84B562
:10029000816084BD85B5826085BD85B5816085BD81
:1002A000EEE6F0E0808181608083E1E8F0E010829A
:1002B000808182608083808181608083E0E8F0E0DB
:1002C000808181608083E1EBF0E0808184608083C5
:1002D000E0EBF0E0808181608083EAE7F0E08081FC
:1002E000846080838081826080838081816080835C
:1002F0008081806880831092C10008958E3008F05C
:100300008E5087702091000190E4299F9001112464
:10031000822B80937C0080917A00806480937A00A5
:1003200080917A0086FDFCCF809178002091790041
:1003300090E0922B0895FC01818D228D90E0805CED
:100340009F4F821B91098F7399270895FC01918D0E
:10035000828D981731F0828DE80FF11D858D90E028
:1003600008958FEF9FEF0895FC01918D828D98176E
:1003700061F0828DDF01A80FB11D5D968C91928D89
:100380009F5F9F73928F90E008958FEF9FEF089586
:1003900088E393E0892B49F080E090E0892B29F0F5
:1003A0000E94380381110C9400000895FC01848D93
:1003B000DF01A80FB11DA35ABF4F2C91848D90E08F
:1003C00001968F739927848FA689B7892C93A0896A
:1003D000B1898C9180648C93938D848D981306C021
:1003E0000288F389E02D80818F7D80830895CF93EB
:1003F000DF93EC01888D8823C9F0EA89FB8980812D
:1004000085FD05C0A889B9898C9186FD0FC00FB6FE
:1004100007FCF5CF808185FFF2CFA889B9898C913F
:1004200085FFEDCFCE010E94D601E7CFDF91CF91BE
:100430000895CF92DF92FF920F931F93CF93DF9394
:100440001F92CDB7DEB76C01DC015B969C915B9788
:100450005C968C915C97981307C05096ED91FC9137
:100460005197808185FD32C0F601038D10E00F5F4A
:100470001F4F0F731127F02EF601848DF81211C053
:100480000FB607FCF9CFD6015096ED91FC9151972C
:10049000808185FFF1CFC60169830E94D601698101
:1004A000EBCF838DE80FF11DE35AFF4F6083D60138
:1004B0005B960C935B975296ED91FC9153978081DC
:1004C0008062808381E058968C930DC0D601569649
:1004D000ED91FC91579760835096ED91FC91519767
:1004E00080818064808381E090E00F90DF91CF91E4
:1004F0001F910F91FF90DF90CF900895BF92CF9200
:10050000DF92EF92FF92CF93DF93EC016A017B01C0
:10051000B22EE889F98982E08083411581EE58077F
:1005200061057105A1F060E079E08DE390E0A7013D
:1005300096010E94C8072150310941095109569579
:10054000479537952795211580E1380798F0E88978
:10055000F989108260E874E88EE190E0A7019601C5
:100560000E94C80721503109410951095695479504
:1005700037952795EC85FD853083EE85FF852083B3
:10058000188EEC89FD89B082EA89FB8980818061BF
:100590008083EA89FB89808188608083EA89FB897E
:1005A000808180688083EA89FB8980818F7D808358
:1005B000DF91CF91FF90EF90DF90CF90BF900895A3
:1005C0001F920F920FB60F9211242F938F939F9328
:1005D000EF93FF93E0915B01F0915C018081E091EA
:1005E0006101F091620182FD12C0908180916401ED
:1005F0008F5F8F7320916501821751F0E091640144
:10060000F0E0E55BFE4F958F8093640101C080812F
:10061000FF91EF919F918F912F910F900FBE0F90AF
:100620001F9018951F920F920FB60F9211242F93BF
:100630003F934F935F936F937F938F939F93AF936A
:10064000BF93EF93FF938BE491E00E94D601FF915B
:10065000EF91BF91AF919F918F917F916F915F913A
:100660004F913F912F910F900FBE0F901F901895B3
:100670008BE491E00E949B0121E0892B09F420E0AA
:10068000822F089510924E0110924D0188EE93E052
:10069000A0E0B0E080934F0190935001A0935101EE
:1006A000B093520182E291E090934C0180934B0110
:1006B00085EC90E0909358018093570184EC90E092
:1006C00090935A018093590180EC90E090935C01E3
:1006D00080935B0181EC90E090935E0180935D01DB
:1006E00082EC90E09093600180935F0186EC90E053
:1006F00090936201809361011092640110926501F0
:100700001092660110926701089508950E944301B6
:100710000E9485030E945F00C8ECD1E00E9468003F
:100720002097E1F30E94C801F9CFCF92DF92EF92B8
:10073000FF920F931F93CF93DF936C017A01EB012C
:10074000E60EF71E00E010E0CE15DF0561F06991BE
:10075000D601ED91FC910190F081E02DC601099543
:10076000080F191FF1CFC801DF91CF911F910F9191
:10077000FF90EF90DF90CF9008956115710581F0A3
:10078000DB010D900020E9F7AD0141505109461BF6
:10079000570BDC01ED91FC910280F381E02D09946F
:1007A00080E090E008950C94BD03DC01ED91FC9194
:1007B0000190F081E02D09940F931F93CF93DF9365
:1007C000EC016DE00E94D5038C016AE0CE010E942D
:1007D000D503800F911FDF91CF911F910F91089545
:1007E0008F929F92AF92BF92CF92DF92EF92FF9241
:1007F0000F931F93CF93DF93CDB7DEB7A1970FB6BB
:10080000F894DEBF0FBECDBF7C01C42EE52FCB0117
:10081000D22E19A221E02D1510F02AE0D22E8E0141
:100820000F5D1F4F8D2C912CA12CB12C6C2D7E2F88
:10083000A50194010E94C8078C2DD29E8019112415
:10084000015011098A3014F4805D01C0895CF801FF
:100850008083211531054105510521F0C22EE32F7A
:10086000CA01E4CFB801C7010E94BD03A1960FB62B
:10087000F894DEBF0FBECDBFDF91CF911F910F91D6
:10088000FF90EF90DF90CF90BF90AF909F908F90B0
:100890000895CF92DF92EF92FF920F931F93CF9321
:1008A000DF93EC016A017B012115310579F4E881C0
:1008B000F9810190F081E02D642FDF91CF911F919C
:1008C0000F91FF90EF90DF90CF9009942A3031057F
:1008D000E9F477FF1AC06DE20E94D5038C0144272A
:1008E0005527BA014C195D096E097F092AE0CE012E
:1008F0000E94F003800F911FDF91CF911F910F9104
:10090000FF90EF90DF90CF9008952AE0B701A60105
:10091000CE01DF91CF911F910F91FF90EF90DF906B
:10092000CF900C94F0030F931F93CF93DF93EC01C0
:100930009A01AB01662757FD6095762F0E94490406
:100940008C01CE010E94DC03800F911FDF91CF91BB
:100950001F910F9108954F925F926F927F928F92A5
:100960009F92AF92BF92CF92DF92EF92FF920F933E
:100970001F93CF93DF93EC016A017B01B22E9A01A2
:10098000AB01C701B6010E94C407882319F06EE2CB
:1009900071E027C026013701E89477F82FEF3FEF89
:1009A0004FE75FE7C301B2010E94C40781110DC088
:1009B0002FEF3FEF4FE75FE7C301B2010E940E0642
:1009C00018161CF462E371E00CC02FEF3FEF4FE705
:1009D0005FE4C701B6010E945D071816ACF466E338
:1009E00071E0CE01DF91CF911F910F91FF90EF90B9
:1009F000DF90CF90BF90AF909F908F907F906F903F
:100A00005F904F900C94BD032FEF3FEF4FE75FECEB
:100A1000C701B6010E940E0687FDE1CF20E030E05D
:100A2000A901C701B6010E940E0687FF0AC06DE248
:100A3000CE010E94D5038C01F7FAF094F7F8F094F8
:100A400002C000E010E0A12C60E070E080E09FE3D5
:100A5000AB1441F020E030E040E251E40E94120685
:100A6000A394F6CF9B01AC01C701B6010E94AA0571
:100A70006B017C010E947F062B013C010E94AB06AA
:100A80009B01AC01C701B6010E94A9056B017C0165
:100A90002AE0B301A201CE010E94F003080F191F42
:100AA000BB2039F06AE371E0CE010E94BD03080F5C
:100AB000191F7B2C772041F120E030E040E251E427
:100AC000C701B6010E9461076B017C010E947A0692
:100AD0004B01AA2497FCA094BA2C2AE030E0B5017F
:100AE000A401CE010E944904080F191FC501B401D9
:100AF0000E94AD069B01AC01C701B6010E94A90589
:100B00006B017C017A94D6CFC801DF91CF911F9100
:100B10000F91FF90EF90DF90CF90BF90AF909F909C
:100B20008F907F906F905F904F9008950F931F93D9
:100B3000CF93DF93EC010E94AB048C01CE010E94A5
:100B4000DC03800F911FDF91CF911F910F910895CA
:100B500008955058BB27AA270ED075C166D130F032
:100B60006BD120F031F49F3F11F41EF45BC10EF401
:100B7000E095E7FB51C1E92F77D180F3BA176207FF
:100B800073078407950718F071F49EF58FC10EF472
:100B9000E0950B2EBA2FA02D0B01B90190010C018D
:100BA000CA01A0011124FF27591B99F0593F50F4A5
:100BB000503E68F11A16F040A22F232F342F4427FD
:100BC000585FF3CF469537952795A795F0405395F5
:100BD000C9F77EF41F16BA0B620B730B840BBAF0C5
:100BE0009150A1F0FF0FBB1F661F771F881FC2F730
:100BF0000EC0BA0F621F731F841F48F48795779544
:100C00006795B795F7959E3F08F0B3CF9395880FFA
:100C100008F09927EE0F979587950895D9D008F495
:100C200081E008950CD00FC107D140F0FED030F024
:100C300021F45F3F19F0F0C0511139C1F3C014D154
:100C400098F39923C9F35523B1F3951B550BBB2793
:100C5000AA2762177307840738F09F5F5F4F220F40
:100C6000331F441FAA1FA9F333D00E2E3AF0E0E839
:100C700030D091505040E695001CCAF729D0FE2F85
:100C800027D0660F771F881FBB1F26173707480717
:100C9000AB07B0E809F0BB0B802DBF01FF279358CD
:100CA0005F4F2AF09E3F510568F0B6C000C15F3F1C
:100CB000ECF3983EDCF3869577956795B795F795B5
:100CC0009F5FC9F7880F911D9695879597F90895AD
:100CD000E1E0660F771F881FBB1F62177307840749
:100CE000BA0720F0621B730B840BBA0BEE1F88F758
:100CF000E095089504D06894B111D9C00895BCD08E
:100D000088F09F5790F0B92F9927B751A0F0D1F0F4
:100D1000660F771F881F991F1AF0BA95C9F712C07E
:100D2000B13081F0C3D0B1E00895C0C0672F782FF3
:100D30008827B85F39F0B93FCCF3869577956795EA
:100D4000B395D9F73EF490958095709561957F4F56
:100D50008F4F9F4F0895E89409C097FB3EF49095FC
:100D60008095709561957F4F8F4F9F4F9923A9F084
:100D7000F92F96E9BB279395F69587957795679513
:100D8000B795F111F8CFFAF4BB0F11F460FF1BC057
:100D90006F5F7F4F8F4F9F4F16C0882311F096E9EA
:100DA00011C0772321F09EE8872F762F05C0662398
:100DB00071F096E8862F70E060E02AF09A95660F51
:100DC000771F881FDAF7880F9695879597F908950A
:100DD000990F0008550FAA0BE0E8FEEF161617064C
:100DE000E807F907C0F012161306E407F50798F0B4
:100DF000621B730B840B950B39F40A2661F0232BCD
:100E0000242B252B21F408950A2609F4A140A69548
:100E10008FEF811D811D089597F99F6780E870E02D
:100E200060E008959FEF80EC089500240A94161660
:100E3000170618060906089500240A9412161306C8
:100E4000140605060895092E0394000C11F4882356
:100E500052F0BB0F40F4BF2B11F460FF04C06F5F72
:100E60007F4F8F4F9F4F089557FD9058440F551F48
:100E700059F05F3F71F04795880F97FB991F61F01C
:100E80009F3F79F087950895121613061406551F93
:100E9000F2CF4695F1DF08C0161617061806991FFF
:100EA000F1CF86957105610508940895E894BB27F4
:100EB00066277727CB0197F908958ADF08F48FEF2B
:100EC00008950BD0C0CFB1DF28F0B6DF18F095231E
:100ED00009F0A2CFA7CF1124EACFC6DFA0F3959FD8
:100EE000D1F3950F50E0551F629FF001729FBB2711
:100EF000F00DB11D639FAA27F00DB11DAA1F649FBD
:100F00006627B00DA11D661F829F2227B00DA11D6F
:100F1000621F739FB00DA11D621F839FA00D611DF5
:100F2000221F749F3327A00D611D231F849F600D16
:100F3000211D822F762F6A2F11249F5750408AF04F
:100F4000E1F088234AF0EE0FFF1FBB1F661F771FDB
:100F5000881F91505040A9F79E3F510570F05CCF1B
:100F6000A6CF5F3FECF3983EDCF3869577956795C7
:100F7000B795F795E7959F5FC1F7FE2B880F911DF9
:100F80009695879597F9089523DF880B990B089517
:100F9000A1E21A2EAA1BBB1BFD010DC0AA1FBB1F7D
:100FA000EE1FFF1FA217B307E407F50720F0A21BEF
:100FB000B30BE40BF50B661F771F881F991F1A945C
:100FC00069F760957095809590959B01AC01BD0186
:100FD000CF010895EE0FFF1F0590F491E02D0994C5
:040FE000F894FFCFB3
:100FE400014E696C6169204144433A20004E696CAA
:100FF400616920746567616E67616E3A2000000064
:101004000000190295039B01B401A601F7016E616A
:0C1014006E00696E66006F7666002E00AC
:00000001FF